:020000040800F2
:1000000010130020A1010008573E0008B73800086F
:10001000553E00087D08000835410008000000003A
:100020000000000000000000000000005B3E00082F
:100030009908000800000000593E00085D3E0008D5
:10004000BB010008BB010008BB010008BB010008A0
:10005000BB010008BB010008BB010008BB01000890
:10006000BB010008BB010008BB010008BB01000880
:10007000BB010008BB010008BB010008BB01000870
:10008000BB010008BB010008BB010008BB01000860
:10009000BB010008BB010008BB010008BB01000850
:1000A000BB010008BB010008BB010008BB01000840
:1000B000BB010008BB010008BB010008BB01000830
:1000C000BB010008BB010008BB010008BB01000820
:1000D000BB01000829410008BB010008BB01000862
:1000E000BB010008BB010008BB010008BB01000800
:1000F000BB010008BB010008BB010008BB010008F0
:10010000BB010008BB010008BB010008BB010008DF
:10011000BB010008BB010008B53E0008BB01000898
:10012000BB010008BB01000881080008BB010008F2
:10013000BB010008BB010008BB010008BB010008AF
:10014000BB010008BB010008BB010008BB0100089F
:10015000BB010008BB0100088D080008BB010008B6
:10016000BB010008BB010008BB010008BB0100087F
:10017000BB010008BB010008BB0100080000000033
:10018000BB010008BB010008DFF810D000F064FBE1
:1001900000F074F80048004765580008101300206C
:1001A0000648804706480047FEE7FEE7FEE7FEE711
:1001B000FEE7FEE7FEE7FEE7FEE7FEE7613E00083A
:1001C000890100082DE9F05F0546002092469B4614
:1001D00088460646814640241BE02846414647465D
:1001E000224600F082FA53465A46C01A914110D373
:1001F00011461846224600F069FA2D1A67EB0108ED
:100200004F4622460120002100F060FA17EB00095A
:100210004E41201EA4F10104DFDC484631462A4647
:100220004346BDE8F09F40EA01039B0703D009E085
:1002300008C9121F08C0042AFAD203E011F8013BD2
:1002400000F8013B521EF9D27047D2B201E000F82B
:10025000012B491EFBD270470022F6E710B513466A
:100260000A4604461946FFF7F0FF204610BD421C1F
:1002700010F8011B0029FBD1801A704770B5054C9E
:10028000054D03E0206820448047241DAC42F9D18D
:1002900070BD0000D4610008D86100082DE9FE4F50
:1002A000804681EA0300C00F0C46009021F0004117
:1002B00023F00045B8EB0200A94105D24046214693
:1002C00090461C460B46024623F00040104347D0A0
:1002D000270DC7F30A00C3F30A510290401A019098
:1002E00040286BDAC3F3130040F4801B0098924659
:1002F00020B10023D2EB030A63EB0B0B01985946A4
:10030000C0F14002504600F0E1F906460D46504665
:100310005946019A00F0F9F910EB080061410024F8
:1003200087EA115284EAE7731A4340D0009A62B315
:10033000019A012A4FEA075215DC001B61EB02010A
:100340004FF0004202EA0752CDE90042001C41F59D
:10035000801132462B4600F030FA03B0BDE8F08F32
:1003600040462146F9E7001B61EB0201001C41F504
:10037000801300185B412018A2F5001747EB03011A
:1003800040EAD570B6196D4111E06D084FEA3606A6
:1003900045EAC0754FEA0752001B61EB0201001CE1
:1003A00041F5801149084FEA3000001951413246A9
:1003B0002B4603B0BDE8F04F00F0F0B900980122E1
:1003C00040000023D0EB020263EBE073009821466B
:1003D0004FEAE074B8EB000061EB0401E9E783F059
:1003E00000435BE781F0004158E72DE9FE4F81EAC9
:1003F000030404F0004421F0004100944FF0000B8E
:1004000023F0004350EA01045ED052EA03045BD0BB
:10041000C3F30A54C1F30A552C44A4F2F3340194F3
:10042000A0FB0254C1F3130141F48011C3F3130381
:1004300043F4801301FB024400FB034E840A970A35
:1004400044EA815447EA8357A4FB076802958D0A62
:1004500005FB07854FEA932C04FB0C542705029DEE
:100460004FEA065847EA1637B5EB08056EEB070C5E
:10047000870E920E47EA811742EA8312A7FB020118
:10048000B6EB0B0164EB00042B0D43EA0C335E1852
:1004900044EB1C50DA465146E7FB0201C5F3130456
:1004A0004FEA0B3343EA14534FEA0432019C43EA08
:1004B0000603A4F10C040294009CCDE900B400F002
:1004C0007CF903B0BDE8F08F00200146F9E72DE983
:1004D000F04D81EA030404F0004B21F0004514467E
:1004E0004FF0000A23F0004150EA050220D054EA00
:1004F00001021DD0C5F30A570246C5F31303C1F329
:100500001300C1F30A5640F4801543F48013A7EB9F
:100510000608101BD64608F2FD3873EB050002D31F
:1005200008F1010801E092185B41B8F1000F03DA0D
:1005300000200146BDE8F08D00204FF480110646F2
:1005400084460EE0171B73EB050705D3121B63EB04
:10055000050306434CEA010C49084FEA30009218A3
:100560005B4150EA0107EDD152EA030012D082EA62
:10057000040083EA0501084305D0101BAB4106D2F5
:100580000122002306E000224FF0004302E06FF05A
:10059000010253101AEB06004CEB085110EB0A0055
:1005A00041EB0B01BDE8F04D00F0F8B80EB5C10FFE
:1005B00080EAE0700844CA07002140F233438DE826
:1005C0000E000A460B4600F0F8F803B000BD70B507
:1005D000C1F30A5201F000450024C1F3130140F2B7
:1005E000FF3341F480119A4201DA002070BD40F2DD
:1005F00033439A42A2F2334203DC524200F075F8D0
:1006000000E090402C43F1D0404270BD00F0004229
:1006100030F000400AD0C10D01F56071C0F3160042
:1006200042EA0151C20840071143704700200146C9
:100630007047000030B5041E71F1000404DB4FF078
:100640000044404264EB0101141E73F1000405DB19
:100650001C464FF00043524263EB04038B4208BF39
:10066000824230BD30B5041E71F1000404DB4FF04E
:100670000044404264EB0101141E73F1000405DBE9
:100680001C464FF00043524263EB0403994208BFFB
:10069000904230BD01F0004330B421F0004150EAF7
:1006A000010206D00A0DA2F56072C1F31301002AFF
:1006B00002DC30BC00207047440F44EAC104C10092
:1006C000E01830BC00EBC25000F031B8202A04DB47
:1006D000203A00FA02F1002070479140C2F1200355
:1006E00020FA03F3194390407047202A04DB203A94
:1006F00021FA02F00021704721FA02F3D040C2F142
:1007000020029140084319467047202A06DBCB1788
:10071000203A41FA02F043EAE07306E041FA02F3BC
:10072000D040C2F120029140084319467047002989
:10073000A8BF7047401C490008BF20F00100704767
:1007400010B4B0FA80FC00FA0CF050EA010404BFC7
:1007500010BC704749B1CCF1200421FA04F411FA1D
:100760000CF118BF012121430843A3EB0C01CB1D61
:100770004FEA00614FEA102042BF002010BC7047D2
:1007800000EBC35010440029A4BF10BC7047401CAC
:10079000490008BF20F0010010BC704710B5141EBE
:1007A00073F1000408DA401C41F1000192185B412A
:1007B0001A4301D120F0010010BD2DE9F04D924601
:1007C0009B4611B1B1FA81F202E0B0FA80F2203218
:1007D0009046FFF77BFF04460F4640EA0A0041EAD5
:1007E0000B0153465A46084313D0114653EA010001
:1007F00019D0C8F140025046FFF777FF05460E4674
:10080000504659464246FFF761FF084305D0012094
:1008100004E020463946BDE8F08D0020054346EA55
:10082000E0762C4337430A986305E40AA0EB0800FE
:100830000022FD0A44EA47540A3002D5002001464E
:10084000E9E7010510196941DDE908450019694129
:10085000BDE8F04DA2E70000064C074D06E0E06859
:1008600040F0010394E8070098471034AC42F6D3F7
:10087000FFF78EFCB4610008D4610008FEE70000B9
:10088000014800F01DB80000500C0020014800F0A5
:1008900017B80000B00C00207047704790F8351072
:1008A000022903D08021416501207047052180F88D
:1008B00035100068016821F00101016000207047D7
:1008C0002DE9F84304464FF00009CDF80090634845
:1008D0004FF41651A56D0068B0FBF1F72E6894F83F
:1008E0005C10082000FA01F131420FD021680A683B
:1008F00052070BD50A6822F004020A6094F85C10D3
:100900008840A860606D40F00100606594F85C105C
:100910004FF0010808FA01F0304208D02168496917
:10092000090604D5A860606D40F00200606594F887
:100930005C1004208840304208D02168096889078B
:1009400004D5A860606D40F00400606594F85C1008
:1009500010208840304218D021680968090714D552
:10096000A86020680168490304D50068000308D521
:10097000A16C07E00168C90503D4016821F00801F2
:100980000160216C09B12046884794F85C10202052
:100990008840304231D021680968C9062DD5A86049
:1009A00094F8350005282068016806D0490347D52A
:1009B000006800031DD4616C1CE021F01601016089
:1009C0002068416921F080014161206C08B9A06C68
:1009D00020B12068016821F00801016094F85C10E2
:1009E0003F208840A86084F8349084F83580216DD9
:1009F0001FE0E16B09B120468847606D00282BD0CD
:100A0000606DC00714D0052084F8350020680168A7
:100A100021F0010101600098401C0090B84203D809
:100A200020680068C007F6D184F8349084F83580D7
:100A3000E16C002910D001B02046BDE8F043084722
:100A40000168C905D5D4016821F01001016084F85E
:100A5000349084F83580CCE7BDE8F883140000209A
:100A60002DE9F041044600F0CDFB0546002C7CD07A
:100A7000A249206888423ED0A049183188423AD025
:100A80009E493031884236D09C494831884232D024
:100A90009A49603188422ED09849783188422AD0CC
:100AA00096499031884226D09449A831884222D074
:100AB000934988421FD09249183188421BD09049EF
:100AC0003031884217D08E494831884213D08C4942
:100AD000603188420FD08A49783188420BD08849EA
:100AE0009031884207D08649A831884203D0C82176
:100AF00084A004F07DFE6068C0B1B0F1007F15D025
:100B0000B0F1806F12D0B0F1C06F0FD0B0F1006FB4
:100B10000CD0B0F1206F09D0B0F1406F06D0B0F129
:100B2000606F03D0C92177A004F062FEA06838B1DD
:100B3000402805D0802803D0CA2172A004F058FEB6
:100B4000E068B0F5007F04D018B1CB216DA004F0AF
:100B50004FFE2069B0F5806F04D018B1CC2169A098
:100B600004F046FE606958B100E071E0B0F5006F36
:100B700006D0B0F5805F03D0CD2162A004F038FE2E
:100B8000A06948B1B0F5005F06D0B0F5804F03D042
:100B9000CE215CA004F02CFEE06940B1B0F5807F6E
:100BA00005D0202803D0CF2156A004F021FE206AD2
:100BB00060B1B0F5803F09D0B0F5003F06D0B0F588
:100BC000403F03D0D0214FA004F012FE606A0028FD
:100BD00032D0042806D0D1214AA004F009FE606A70
:100BE000002829D0A06A48B1012807D0022805D0E2
:100BF000032803D0D62143A004F0FAFDE06A60B1D7
:100C0000B0F5000F09D0B0F1807F06D0B0F1C07F01
:100C100003D0D7213BA004F0EBFD206B60B1B0F511
:100C2000001F09D0B0F5800F06D0B0F5C00F03D07B
:100C3000D82134A004F0DCFD002684F834600220C2
:100C400084F835002068016821F0010101600EE0A0
:100C50000120BDE8F08100BF00F0D4FA401B052858
:100C600005D920206065032084F83500F1E720686D
:100C70000068C007F0D12268116830480140D4E90B
:100C800001031843D4E903352B4318436369184320
:100C9000A3691843E3691843236A18430843616A48
:100CA000042903D1D4E90B131943084310602068C9
:100CB0004069656A20F0070128460D430127042892
:100CC0000CD1A06A0543E06A40B1204603F0A0FDC4
:100CD00020B14020606584F83570B9E7206845612F
:100CE000204603F067FE94F85C203F21914081602C
:100CF000666584F835700020ABE7000010600240A4
:100D0000106402402E2E2F447269766572732F5341
:100D1000544D3332463478785F48414C5F447269B1
:100D20007665722F5372632F73746D333266347825
:100D3000785F68616C5F646D612E63003F8010F0C6
:100D40002DE9F04789460446876D0025581E4FF669
:100D5000FF711E469046884204D34FF4EA711EA0EC
:100D600004F046FD94F8340001280DD0012084F8E9
:100D7000340094F835100020012907D084F834009D
:100D800002252846BDE8F0870220FBE7022184F80F
:100D900035106065334642464946204603F0CBF99C
:100DA00094F85C103F208840B8602068016841F0EA
:100DB000160101602068416941F080014161206CA9
:100DC00020B12068016841F00801016020680168D5
:100DD00041F001010160D4E72E2E2F44726976653F
:100DE00072732F53544D3332463478785F48414CF8
:100DF0005F4472697665722F5372632F73746D331B
:100E000032663478785F68616C5F646D612E630070
:100E100070B5044600F0F6F90546601C02D004489F
:100E20000078044400F0EEF9401BA042FAD370BDF4
:100E3000080000202DE9F84F0446A0480D468442E2
:100E40001BD09F48844218D09E48844215D09E48AB
:100E5000844212D09D4884420FD09D4884420CD0D9
:100E60009C48844209D09C48844206D09B488442D6
:100E700003D0C3219AA004F0BBFC28680104090C2C
:100E800001D0000C03D0C42195A004F0B1FC686827
:100E9000F8B101281DD011281BD0022819D0122822
:100EA00017D09E49884214D09D49884211D09D494F
:100EB00088420ED09C4988420BD09C49884208D079
:100EC0009B49884205D0032803D0C52184A004F0A3
:100ED0008FFCA86838B1012805D0022803D0C621AC
:100EE0007FA004F085FC00264FF0010B0BFA06F002
:100EF0002F688246074057457ED16868022801D096
:100F000012282ED12869F8B109281DD001281BD03C
:100F1000022819D0032817D0042815D0052813D08B
:100F2000062811D007280FD008280DD00A280BD08A
:100F30000B2809D00C2807D00D2805D00F2803D086
:100F4000D72167A004F054FCF00804EB8002106A7B
:100F50007107CB0E0F2199408843296999400143BD
:100F6000116220687200032101FA02F82979914682
:100F700001F0030120EA080001FA09F101432160B0
:100F80006868012805D0022803D0112801D0122852
:100F90001CD1E86848B1012807D0022805D00328F1
:100FA00003D0EA214EA004F023FCA068E96820EAFF
:100FB000080001FA09F10143A1606068297920EA7B
:100FC0000A00C1F30011B14001436160E068A96803
:100FD00020EA080001FA09F10143E1606868C000F5
:100FE00065D55448016841F480410160006826F0ED
:100FF000030100F4804000E059E000904E480A18D8
:10100000D2F80808B1070B0F0F21994088432B49EC
:101010008C4201D1002123E029498C4201D10121D8
:101020001EE028498C4201D1022119E026498C4258
:1010300001D1032114E025498C4201D104210FE0A4
:1010400023498C4201D105210AE022498C4201D179
:10105000062105E020498C4201D1072100E008214A
:1010600099400143C2F80818344908686A68B843CF
:10107000D20300D5384308603049091D08686A6802
:10108000B843920300D5384308602C4908310868FA
:101090006A68B843D20200D53843086027490C314A
:1010A00008686A68B843920200D538430860761C25
:1010B000102EFFF41BAFBDE8F88F000000000240C7
:1010C0000004024000080240000C024000100240F0
:1010D0000014024000180240001C024000200240A0
:1010E0002E2E2F447269766572732F53544D33320E
:1010F000463478785F48414C5F4472697665722F58
:101100005372632F73746D3332663478785F68611D
:101110006C5F6770696F2E630000000000001110A3
:1011200000002110000031100000121000002210F9
:10113000000032104438024000300140003C0140C1
:1011400070B50C00054604D14FF4E37103A004F020
:101150004FFB68696040686170BD00002E2E2F440F
:101160007269766572732F53544D333246347878F2
:101170005F48414C5F4472697665722F5372632FEA
:1011800073746D3332663478785F68616C5F677052
:10119000696F2E630000000070B515460C0006460E
:1011A00004D140F2AF1108A004F022FB45B1012D9B
:1011B00004D04FF4D87104A004F01AFBB46170BDE0
:1011C0002004B06170BD00002E2E2F447269766538
:1011D00072732F53544D3332463478785F48414C04
:1011E0005F4472697665722F5372632F73746D3327
:1011F00032663478785F68616C5F6770696F2E6300
:1012000000000000014880687047000008000020CE
:1012100070B504005FD06C49206888420AD06B49E1
:10122000884207D06A49884204D04FF4B77169A058
:1012300004F0DEFA60687549401E884204D940F225
:101240006F1164A004F0D4FAA0684FF4804530B167
:10125000A84204D04FF4B8715EA004F0C9FAE06867
:10126000800A04D040F271115AA004F0C1FA20693A
:10127000A84207D0B0F5404F04D04FF4B97155A043
:1012800004F0B6FA606930B1012804D040F273115D
:1012900050A004F0ADFAA06930F0FE0004D04FF485
:1012A000BA714CA004F0A4FAE06930B1402804D02F
:1012B00040F2751147A004F09BFA206A30B18028F3
:1012C00004D04FF4BB7143A004F092FA94F83D00AF
:1012D000002510B106E0012070BD84F83C50204686
:1012E00000F09AF8242084F83D002068016821F07D
:1012F0000101016000F002FB45492268B0FBF1F1F9
:101300005160444A6368934206D94FF49673594337
:101310004FF47A73B1FBF3F12368491C19626168D9
:1013200091420BD84900B0FBF1F2C2F30B02042A40
:1013300001D204201AE0B0FBF1F017E0A368A3B3D8
:1013400001EBC10202EB0112B0FBF2F242F4804267
:10135000120531D053B301EBC10202EB0111B0FB16
:10136000F1F040F4804000BF40F400402168C861C3
:10137000D4E90701084321680860D4E90310084351
:1013800021688860D4E9050108432168C8602068A5
:10139000016841F0010101602564202084F83D00CE
:1013A000256384F83E50002070BD00E006E001EBAC
:1013B0004102B0FBF2F2CBE70120D7E701EB41019C
:1013C000B0FBF1F0D0E700000054004000580040AE
:1013D000005C00402E2E2F447269766572732F5385
:1013E000544D3332463478785F48414C5F447269DB
:1013F0007665722F5372632F73746D33326634784F
:10140000785F68616C5F6932632E63007F1A060043
:1014100040420F00A086010010B586B0044614219A
:101420006846FEF719FF13492068884220D1124808
:10143000016841F0020101600068694600F00200A5
:101440000590C020009012200190012002900320FE
:101450000390042004900948FFF7ECFC0648103084
:10146000016841F400110160006800F4001005906B
:1014700006B010BD00540040303802400004024065
:10148000024881680278114481607047080000209A
:101490000B4810B5016841F400710160016841F426
:1014A00080610160016841F480710160032000F0F7
:1014B000C1F8002000F006F800F024F8002010BD6C
:1014C000003C024070B50D4D04464FF47A71287807
:1014D000B1FBF0F00A490968B1FBF0F000F08FFCB5
:1014E00048B9102C07D200222146501E00F052F8B5
:1014F00000206C6070BD012070BD0000080000205D
:10150000140000200A4808B5016841F480410160D8
:10151000006800F4804000900548001F016841F019
:1015200080510160006800F08050009008BD00000C
:101530004438024010B5040003D5CE2106A004F0C3
:1015400057F904F01F01012088406109890001F169
:10155000E021C1F8000110BD2E2E2F44726976657E
:1015600072732F53544D3332463478785F48414C70
:101570005F4472697665722F5372632F73746D3393
:1015800032663478785F68616C5F636F7274657817
:101590002E63000070B515460C460646102A03D38C
:1015A000BA2114A004F024F9102C03D3BB2111A0FC
:1015B00004F01EF91E480068C0F30223C3F10702BD
:1015C0002046042A00D90422191D072901D200232C
:1015D00000E0DB1E012404FA02F1491E014099409B
:1015E0009C40641E2C4021433046BDE8704002F010
:1015F000C3BF00002E2E2F447269766572732F537D
:10160000544D3332463478785F48414C5F447269B8
:101610007665722F5372632F73746D33326634782C
:10162000785F68616C5F636F727465782E63000029
:101630000CED00E010B5044607280BD0062C09D0AD
:10164000052C07D0042C05D0032C03D0A22108A020
:1016500004F0CEF8154904F0070208684FF6FF03BE
:10166000184040EA0220124A1043086010BD0000F2
:101670002E2E2F447269766572732F53544D333278
:10168000463478785F48414C5F4472697665722FC2
:101690005372632F73746D3332663478785F686188
:1016A0006C5F636F727465782E6300000CED00E070
:1016B0000000FA052DE9F0470E4604007DD02068B1
:1016C000401E0E2804D94FF414717AA004F090F84B
:1016D00096B1012E10D0022E0ED0032E0CD0042E67
:1016E0000AD0052E08D0062E06D0072E04D040F2D0
:1016F000512170A004F07CF8DFF8F081D8F80000E8
:10170000F7B200F00F00B04207D288F80070D8F8A6
:10171000000000F00F00B0424FD12068744D8107E7
:1017200029D5400703D5286840F4E0502860207888
:10173000000703D5286840F460402860A068A0B185
:10174000802812D0902810D0A0280ED0B0280CD01D
:10175000C0280AD0D02808D0E02806D0F02804D02D
:101760004FF41D7153A004F043F82868A16820F0DD
:10177000F000084328602078C00743D0DFF870915C
:101780006068A9F1080988B1012822D0022824D074
:10179000032822D040F27B2146A004F029F860689B
:1017A000012816D0022818D0032816D0D9F8000036
:1017B0008007002833DA286800E030E0616820F014
:1017C000030008432860FFF71DFD814641F2883A77
:1017D00011E0D9F800008003EBE7D9F800008001A0
:1017E000E7E700BFFFF70EFDA0EB0901514502D965
:1017F0000320BDE8F0872868616800F00C00B0EBBA
:10180000810FEFD1D8F80010404601F00F01B1422E
:1018100007D90770006800F00F00B04201D0012026
:10182000E7E720784FF4805640074FF4A0574FF475
:10183000C0584FF4E05914D5E06860B1B0420AD006
:10184000B84208D0404506D0484504D040F2B921FE
:1018500018A003F0CDFF2868E16820F4E0500843A9
:1018600028602078000715D5206960B1B0420AD001
:10187000B84208D0404506D0484504D04FF43071F6
:101880000CA003F0B5FF2868216920F4604040EA0D
:10189000C100286000F052F82968164AC1F303110C
:1018A000515CC840144908600020FFF70BFE00207F
:1018B0009FE700002E2E2F447269766572732F53B6
:1018C000544D3332463478785F48414C5F447269F6
:1018D0007665722F5372632F73746D33326634786A
:1018E000785F68616C5F7263632E6300003C024046
:1018F000083802407C5F00081400002004480549B5
:1019000000680968044AC1F38221515CC8407047ED
:1019100014000020083802408C5F00080448054984
:1019200000680968044AC1F34231515CC8407047FD
:1019300014000020083802408C5F0008154810B5DC
:10194000006810F00C02144813D01449042A0FD078
:10195000082A0ED10F4C241F2268236802F03F0290
:101960005B0207D52068C0F38810A0FB010106E0E8
:10197000084610BD2168C1F38811A1FB00010023B6
:10198000FEF720FC2168C1F30141491C4900B0FB6E
:10199000F1F010BD083802400024F40040787D01C9
:1019A0002DE9F84F04007DD020680F2803D9F821D5
:1019B000F2A003F01DFF2078DFF8F8B3FE4DC0075A
:1019C00056D060684FF480364FF4A02738B1B0424B
:1019D00005D0B84203D0FD21E8A003F009FFDBF8F1
:1019E00000105846C1F38101012909D00068C0F3F5
:1019F000810002280BD1EF48001F0068400206D585
:101A00002868800334D560680028CCD030E0606856
:101A1000B04203D1286840F480300CE0B842286816
:101A200003D140F480202860F4E720F4803028605F
:101A3000286820F480202860606860B1FFF7E2FB2E
:101A4000064604E0FFF7DEFB801B64287ED828688A
:101A50008003F7D50CE0FFF7D5FB064605E000BF95
:101A6000FFF7D0FB801B6428F0D828688003F7D4E8
:101A70002078DFF8488380074FF0000956D5E068EA
:101A800030B1012804D040F22F11BCA003F0B0FE09
:101A900020691F2804D94FF49871B8A003F0A8FE5C
:101AA000584600E092E0DBF8001011F00C0F09D06E
:101AB0000068C0F38100022811D1BE48001F0068F1
:101AC00040020CD42868800702D5E06801287DD147
:101AD0002868216920F0F80040EAC10016E0E068BB
:101AE000B0B10120C8F80000FFF78CFB064604E007
:101AF000FFF788FB801B0228A8D828688007F7D545
:101B0000286820F0F801206941EAC00028600DE053
:101B1000C8F80090FFF776FB064604E0FFF772FB7B
:101B2000801B022892D828688007F7D42078000705
:101B30002ED5A04EA24F60696C36D0B1012808D0D6
:101B40004FF4B8718DA003F053FE00E04DE16069E1
:101B500078B101203860FFF755FB074605E000BF6C
:101B6000FFF750FBC01B0228C6D830688007F7D5A6
:101B70000EE0C7F80090FFF745FB074605E000BF01
:101B8000FFF740FBC01B0228B6D830688007F7D4A7
:101B90002078400776D5A068002740B1012806D0FC
:101BA000052804D04FF4CE7174A003F021FEDFF8B5
:101BB00004A20AF1380ADAF80000C0000DD4DAF8FD
:101BC000001041F08051CAF8001000E0D4E0DAF8CB
:101BD0000000012700F0805000907A4E3068C00568
:101BE00011D4306840F480703060FFF70BFB009038
:101BF00006E000BFFFF706FB0099401A022891D8C3
:101C00003068C005F6D56B4EA068683601280FD045
:101C10000528306810D020F001003060306820F0D6
:101C200004003060A068B8B1FFF7ECFA00900FE054
:101C3000306840F00100F4E740F004003060F7E75E
:101C4000FFF7E0FA0099411A41F2883081428BD8BF
:101C500030688007F4D50EE0FFF7D4FA009007E073
:101C6000FFF7D0FA0099411A41F2883081428BD8AF
:101C700030688007F4D42FB1DAF8001021F08051D9
:101C8000CAF80010A069002875D0012809D00228E0
:101C900007D040F2DF1139A003F0AAFDA0690028A7
:101CA000F2D0DBF80000C0F38100022864D0A06904
:101CB000022805D0C8F86090FFF7A4FA044697E020
:101CC000E06938B1B0F5800F04D04FF4F4712BA067
:101CD00003F08EFD206A3F2804D940F2E91127A0C5
:101CE00003F086FD606A3238B0F5BF7F04D94FF447
:101CF000F57122A003F07CFDA06A02280AD0042816
:101D000008D0062806D0082804D040F2EB111BA00A
:101D100003F06EFDE06A801E0D2804D94FF4F671C1
:101D200016A003F065FD4746C8F86090FFF76AFA11
:101D3000064604E0FFF766FA801B022855D828689B
:101D40008001F7D4D4E907010843A16A1E4A490873
:101D500002EB0141626A41EA8211084394F82C10B7
:101D600040EA01611348001F016001203866FFF757
:101D700049FA04462FE03EE03FE000002E2E2F44BB
:101D80007269766572732F53544D333246347878C6
:101D90005F48414C5F4472697665722F5372632FBE
:101DA00073746D3332663478785F68616C5F726328
:101DB000632E6300083802400038024000004742AA
:101DC000800E4742007000400000FFFFFFF71AFA44
:101DD000001B022809D828688001F7D50BE000BF56
:101DE000FFF710FA001B022802D90320BDE8F88F84
:101DF00028688001F4D40020F8E70120F6E710B548
:101E0000401EB0F1807F01D3012010BD4FF0E024CF
:101E100060610F21601702F0AFFB0020A061072076
:101E20002061002010BD70477047000070B50C465F
:101E3000054600684049884207D04049884204D09E
:101E400040F272613EA003F0D3FC2068B0F5006F51
:101E500005D020B140F2736139A003F0C9FC60687D
:101E6000B0F5806F05D020B140F2746134A003F06A
:101E7000BFFCA06868B1B0F5807F0AD0B0F5007FE4
:101E800007D0B0F5407F04D040F275612CA003F07C
:101E9000AFFCE068FF2804D940F2766128A003F087
:101EA000A7FC2069B0F5805F05D020B140F27761D2
:101EB00023A003F09DFC606938B1B0F5005F04D049
:101EC0004FF4CF611EA003F093FCA069B0F5804FE2
:101ED00005D020B140F2796119A003F089FC95F892
:101EE0003800012825D0012085F83800E068A26874
:101EF00020F440701043626820F480601043226830
:101F000020F400601043226920F48050104362697D
:101F100020F400501043A26920F4804010430021B7
:101F200020F4004010432A68506485F838100020DF
:101F300070BD022070BD000000000140000401409F
:101F40002E2E2F447269766572732F53544D33329F
:101F5000463478785F48414C5F4472697665722FE9
:101F60005372632F73746D3332663478785F6861AF
:101F70006C5F74696D5F65782E63000070B50D4607
:101F8000044600683049884219D0B0F1804F16D01D
:101F90002E49884213D02E49884210D02D498842BC
:101FA0000DD02D4988420AD02C49884207D02C49AF
:101FB000884204D040F24A612AA003F019FC286844
:101FC00090B1102810D020280ED030280CD04028F6
:101FD0000AD0502808D0602806D0702804D040F2DB
:101FE0004B6120A003F004FC6868802805D020B174
:101FF00040F24C611BA003F0FBFB94F83800012871
:102000001FD0012084F83800022184F8391021689B
:102010004A6822F070024A6021684A682B681A43B5
:102020004A6021688A6822F080028A6021688A6892
:102030006B681A438A6084F83900002084F83800FD
:1020400070BD022070BD000000000140000400408F
:1020500000080040000C0040001000400014004048
:10206000000401402E2E2F447269766572732F533F
:10207000544D3332463478785F48414C5F4472693E
:102080007665722F5372632F73746D3332663478B2
:10209000785F68616C5F74696D5F65782E630000BE
:1020A00010B504004CD03048226882422AD0B2F1E8
:1020B000804F27D02D48824224D02D48824221D003
:1020C0002C4882421ED02C4882421BD02B48824290
:1020D00018D02B48824215D02A48824212D02A4872
:1020E00082420FD0294882420CD02948824209D02E
:1020F0002848824206D02848824203D0D72127A010
:1021000003F076FBA06858B1102809D0202807D02A
:10211000402805D0602803D0D82120A003F068FB18
:10212000206948B1B0F5807F06D0B0F5007F03D0BC
:10213000D9211AA003F05CFB94F8390010B107E034
:10214000012010BD002084F83800204600F042F83D
:10215000022084F83900211D206801F0B1FE012021
:1021600084F83900002010BD000001400004004048
:1021700000080040000C0040001000400014004027
:10218000000401400040014000440140004801407B
:1021900000180040001C0040002000402E2E2F445C
:1021A0007269766572732F53544D333246347878A2
:1021B0005F48414C5F4472697665722F5372632F9A
:1021C00073746D3332663478785F68616C5F7469FC
:1021D0006D2E630008B501681048B1F1804F14D02E
:1021E0000F4A914219D1016841F010010160006865
:1021F000002200F01000009011463620FFF7CAF9C7
:10220000BDE808403620FFF795B9016841F00101AB
:102210000160006800F00100009008BD40380240F5
:102220000010004010B5044601681E4881422BD0C2
:10223000B1F1804F28D01C48814225D01B488142F3
:1022400022D01B4881421FD01A4881421CD01A4814
:10225000814219D01948814216D01948814213D0C1
:102260001848814210D0184881420DD01748814249
:102270000AD01748814207D01648814204D04FF453
:10228000997115A003F0B4FA022084F8390020688F
:10229000016841F001010160012084F8390000204B
:1022A00010BD000000000140000400400008004094
:1022B000000C0040001000400014004000040140E9
:1022C0000040014000440140004801400018004027
:1022D000001C0040002000402E2E2F4472697665BD
:1022E00072732F53544D3332463478785F48414CE3
:1022F0005F4472697665722F5372632F73746D3306
:1023000032663478785F68616C5F74696D2E630043
:1023100010B5044601681D4881422BD0B1F1804FB1
:1023200028D01B48814225D01A48814222D01A4821
:1023300081421FD0194881421CD01948814219D0CE
:102340001848814216D01848814213D0174881425C
:1023500010D0174881420DD0164881420AD0164845
:10236000814207D01548814204D04FF4B17114A0C6
:1023700003F03EFA2068C16841F00101C1602068A5
:10238000016841F001010160002010BD0000014022
:102390000004004000080040000C00400010004015
:1023A000001400400004014000400140004401408E
:1023B0000048014000180040001C00400020004080
:1023C0002E2E2F447269766572732F53544D33321B
:1023D000463478785F48414C5F4472697665722F65
:1023E0005372632F73746D3332663478785F68612B
:1023F0006C5F74696D2E63002DE9F05F044690F800
:1024000038000D46012844D0012084F8380002200D
:1024100084F839002868B0F5805F16D0B0F5005F09
:1024200013D090B1102810D020280ED030280CD016
:1024300040280AD0502808D0602806D0702804D040
:1024400040F67771F4A003F0D3F92068816821F099
:10245000770121F47F4181602868FD49FD4AFE4BE8
:10246000FE4EFF4FDFF8FC83DFF8FCB3DFF8FCE340
:10247000DFF8FC934FF0804C4FF4004A50287DD099
:102480000FDC20287BD007DC002879D0102878D1F9
:1024900097E10220BDE8F09F302873D04028F6D1A4
:1024A00039E160286FD070287AD0B0F5805F44D0D1
:1024B0004FF400584045EAD1206888420ED060456C
:1024C0000CD090420AD0984208D0B04206D0B84210
:1024D00004D040F6A471D0A003F08AF96868504592
:1024E00009D040B1022806D00A2804D040F6A671CF
:1024F000C9A003F07DF9A86860B1B0F5805F09D08C
:10250000404507D0B0F5405F04D040F6A771C2A0A7
:1025100003F06EF9E8680F2804D940F6A871BEA050
:1025200003F066F9D5E90121EB68206802F078F83C
:102530002068816841F4804173E0206888422AD095
:10254000604528D0904226D0984224D0B04222D074
:10255000C84988421FD0C84988421CD0B8421AD006
:10256000404518D0584516D0704514D0484512D073
:10257000C24988420FD0C249884206E053E039E19F
:1025800006E1C1E087E18BE00AE004D040F6837108
:10259000A1A003F02DF92068816821F0070140E037
:1025A000206888420ED060450CD090420AD09842F4
:1025B00008D0B04206D0B84204D040F68C7196A044
:1025C00003F016F96868504509D040B1022806D0DA
:1025D0000A2804D040F68E718FA003F009F9A8688C
:1025E00068B1B0F5805F0AD0B0F5005F07D0B0F5F4
:1025F000405F04D040F68F7187A003F0F9F8E868D7
:102600000F2804D94FF4796183A003F0F1F8D5E9DC
:102610000121EB68206802F003F82068816841F02E
:102620007701816070E0206888421CD060451AD034
:10263000904218D0984216D0B04214D0B84212D06E
:10264000404510D058450ED070450CD048450AD0B2
:102650008A49884207D08A49884204D040F6B67138
:102660006DA003F0C5F86868504509D040B1022854
:1026700006D00A2804D040F6B97167A003F0B8F874
:10268000E8680F2804D940F6BA7163A003F0B0F8E7
:10269000EA686968206802F0C7F95021206831E0D3
:1026A0002068884212D0604510D090420ED09842E7
:1026B0000CD0B0420AD0B84208D0404506D04845B8
:1026C00004D040F6C47154A003F092F868685045F5
:1026D00009D040B1022806D00A2804D040F6C771BC
:1026E0004DA003F085F8E8680F2804D940F6C871BA
:1026F00049A003F07DF8EA686968206802F0A5F94E
:102700006021206802F0F0F8012084F839000020F0
:1027100084F83800BEE6206888421CD060451AD094
:10272000904218D0984216D0B04214D0B84212D07D
:10273000404510D058450ED070450CD048450AD0C1
:102740004E49884207D04E49884204D040F6D271A3
:1027500031A003F04DF86868504509D040B1022817
:1027600006D00A2804D040F6D5712BA003F040F81B
:10277000E8680F2804D940F6D67127A003F038F88E
:10278000EA686968206802F04FF940212068B9E7DB
:102790002068884212D0604510D090420ED09842F6
:1027A0000CD0B0420AD0B84208D0404506D04845C7
:1027B00004D04FF47E6118A003F01AF800212068BD
:1027C000A0E72068884212D0604510D090420ED019
:1027D00098420CD0B0420AD0B84208D0404506D04A
:1027E000484504D040F6E6710BA003F001F8102133
:1027F000206887E7206888424AD0604548D09042E8
:1028000046D0984244D0B04242D0B84240D0404531
:102810003ED048453CD035E02E2E2F447269766577
:1028200072732F53544D3332463478785F48414C9D
:102830005F4472697665722F5372632F73746D33C0
:1028400032663478785F68616C5F74696D2E6300FE
:10285000000001400004004000080040000C00405F
:102860000004014000400140004401400048014094
:10287000001800400010004000140040001C004000
:102880000020004040F6EC71AFF2740002F0B0FF9F
:102890002021206836E72068884213D0604511D097
:1028A00090420FD098420DD0B0420BD0B84209D020
:1028B000404507D0484505D040F6F271AFF2A80078
:1028C00002F096FF302120681CE700002DE9F0415E
:1028D0000C4605007DD065492868884219D0B0F1C2
:1028E000804F16D06249884213D06249884210D086
:1028F000614988420DD0614988420AD060498842C6
:1029000007D06049884204D040F6FA015EA002F088
:102910006FFF2068012808D0022806D0032804D0C1
:1029200040F6FB0158A002F063FFA068012808D020
:10293000022806D0032804D040F6FC0152A002F081
:1029400057FFA069012808D0022806D0032804D028
:1029500040F6FD014CA002F04BFF606840B1022838
:1029600006D00A2804D040F6FE0147A002F040FF3E
:10297000606940B1022806D00A2804D040F6FF0161
:1029800041A002F035FFE06850B1042808D00828C3
:1029900006D00C2804D04FF410613BA002F028FFB1
:1029A000E06950B1042808D0082806D00C2804D0CB
:1029B00040F6011134A002F01BFF20690F2804D952
:1029C00040F6021130A002F013FF206A0F2806D94A
:1029D00000E008E040F603112BA002F009FF95F893
:1029E000390018B108E00120BDE8F081002085F829
:1029F0003800284600F064F8022085F8390028687D
:102A0000816821F007018160291D286801F058FACA
:102A10002A6890689169166A2368A769034340F29F
:102A20000330814341EA0721A068E76908434FF674
:102A3000FC418843E16840EA072001432069276A96
:102A4000000140EA073008436168646926F0AA067D
:102A500046EA0414214393602A6890612868016261
:102A6000012085F839000020BEE700000000014089
:102A70000004004000080040000C00400004014039
:102A800000400140001800402E2E2F4472697665E8
:102A900072732F53544D3332463478785F48414C2B
:102AA0005F4472697665722F5372632F73746D334E
:102AB00032663478785F68616C5F74696D2E63008C
:102AC000F0B587B0044614216846FDF7C5FB3C49C4
:102AD0003A4E256800223A4C1039C0270223394863
:102AE000B54210D1256845F002052560246804F040
:102AF000020405940C6844F001040C600968009716
:102B000001F0010135E0304EB5421DD1206840F0A2
:102B100004002060206800F004000590086840F080
:102B2000080008600868694600F0080005904FF446
:102B300040500090CDE901322448CDE9032300BF85
:102B4000FEF778F907B0F0BDDFF884C003266545CD
:102B500016D1256845F008052560246804F00804AE
:102B600005940C6844F001040C600968009601F0BB
:102B70000101CDE90132CDE9043103926946DFE775
:102B800014488542DED10E48001D046844F002045A
:102B90000460006800F002000590086840F004003E
:102BA000086008680097CDE9013200F00400CDE923
:102BB0000460694603920848C2E700000004004030
:102BC000403802400000024000080040000C024073
:102BD000000C0040000401400008024070B50446AB
:102BE00002681B480D46824219D0B2F1804F16D0C0
:102BF0001848824213D01848824210D017488242A7
:102C00000DD0174882420AD01648824207D0164893
:102C1000824204D040F6881114A002F0E9FD95B17B
:102C2000042D04D001220021206801F0A9F901221D
:102C30000421206801F0A4F92068016841F0010135
:102C40000160002070BD012200212068F2E7000031
:102C5000000001400004004000080040000C00405B
:102C60000004014000400140001800402E2E2F4477
:102C70007269766572732F53544D333246347878C7
:102C80005F48414C5F4472697665722F5372632FBF
:102C900073746D3332663478785F68616C5F746921
:102CA0006D2E6300704770B50446006801694FF0EF
:102CB0000005C943890715D4C168C943890711D4E0
:102CC000E91E016101202076206880698007204686
:102CD00002D0FFF7E7FF04E000F0C2F8204600F062
:102CE000B1FA257620680169C943490717D4C1683C
:102CF000C943490713D46FF0040101610220207613
:102D00002068806910F4407F204602D0FFF7CAFF98
:102D100004E000F0A5F8204600F094FA257620683B
:102D20000169C943090716D4C168C943090712D408
:102D30006FF008010161042020762068C0698007D7
:102D4000204602D0FFF7AEFF04E000F089F82046ED
:102D500000F078FA257620680169C943C90617D4BE
:102D6000C168C943C90613D46FF01001016108207E
:102D700020762068C06910F4407F204602D0FFF71B
:102D800091FF04E000F06CF8204600F05BFA257635
:102D900020680169C943C90708D1C168C943C90787
:102DA00004D1891E0161204600F0FEFA2068016905
:102DB000C943090609D4C168C943090605D46FF09F
:102DC000800101612046FFF72EF820680169C943A0
:102DD000490609D4C168C943490605D46FF04001CA
:102DE0000161204600F008FB20680169C94389069B
:102DF0000BD4C168C943890607D46FF02001016173
:102E00002046BDE87040FFF70FB870BD10B586B022
:102E1000044614216846FDF71FFA0E4920688842CF
:102E200016D10D480021026842F0100202600068CD
:102E300000F0100005904FF4D44000900220CDE93E
:102E4000020101900120049069460448FDF7F2FF59
:102E500006B010BD000001403038024000100240B2
:102E6000704700002DE9F05F044690F83800924664
:102E70000D4601284ED04FF0010B84F838B0BAF15E
:102E8000000F10D0BAF1040F0DD0BAF1080F0AD01C
:102E9000BAF10C0F07D0BAF1180F04D040F6484130
:102EA00076A002F0A5FC2868602806D0702804D01F
:102EB00040F6494171A002F09BFCA86830B102289D
:102EC00004D040F64A416DA002F092FC286930B16E
:102ED000042804D040F64B4168A002F089FC02208F
:102EE00084F839007349744B744E754FDFF8D4C1C0
:102EF000DFF8D491754A4FF08048BAF1000F0CD03A
:102F0000BAF1040F3ED0BAF1080F66D0BAF10C0F37
:102F100062D187E00220BDE8F09F206888421ED081
:102F200040451CD098421AD0B04218D0B84216D0B2
:102F3000604514D0484512D0654988420FD0654994
:102F400088420CD090420AD06349884207D0634936
:102F5000884204D040F6534148A002F049FC29467B
:102F6000206801F067FB2068816941F008018161F8
:102F70002068816921F004018161206881692A69E2
:102F8000114328E02068884212D0404510D0984272
:102F90000ED0B0420CD0B8420AD0604508D04845A7
:102FA00006D0904204D040F6624134A002F020FCEA
:102FB0002946206801F05CF82068816941F40061CD
:102FC00081612068816921F4806181612068816963
:102FD0002A6941EA022181614AE0206888420ED0D4
:102FE00040450CD098420AD0B04208D0B84206D032
:102FF000604504D040F6714120A002F0F9FB29465B
:10300000206801F043FB2068C16941F00801C161FB
:103010002068C16921F00401C1612068C1692A6981
:10302000114324E0206888420ED040450CD09842DD
:103030000AD0B04208D0B84206D0604504D04FF460
:1030400048610EA002F0D4FB2946206801F08EFBF7
:103050002068C16941F40061C1612068C16921F43F
:103060008061C1612068C1692A6941EA0221C161A8
:1030700084F839B0002084F838004CE72E2E2F4415
:103080007269766572732F53544D333246347878B3
:103090005F48414C5F4472697665722F5372632FAB
:1030A00073746D3332663478785F68616C5F74690D
:1030B0006D2E630000000140000400400008004045
:1030C000000C004000040140004001400018004096
:1030D0000044014000480140001C00400020004026
:1030E00010B504004FD03248226882422BD0B2F192
:1030F000804F28D02F48824225D02F48824222D0AC
:103100002E4882421FD02E4882421CD02D48824237
:1031100019D02D48824216D02C48824213D02C4818
:10312000824210D02B4882420DD02B4882420AD0D6
:103130002A48824207D02A48824204D040F2F13124
:1031400028A002F055FBA06860B110280AD0202802
:1031500008D0402806D0602804D040F2F23121A0E7
:1031600002F046FB206950B1B0F5807F07D0B0F582
:10317000007F04D040F2F3311AA002F039FB94F83A
:10318000390010B107E0012010BD002084F838009C
:10319000204600F043F8022084F83900211D206801
:1031A00000F08EFE012084F83900002010BD0000E0
:1031B000000001400004004000080040000C0040F6
:1031C0000010004000140040000401400040014095
:1031D000004401400048014000180040001C00402D
:1031E000002000402E2E2F447269766572732F5393
:1031F000544D3332463478785F48414C5F447269AD
:103200007665722F5372632F73746D333266347820
:10321000785F68616C5F74696D2E630008B5006843
:103220000649884208D10648016841F00101016061
:10323000006800F00100009008BD0000000001409F
:1032400044380240704700002DE9F041054600680F
:103250003C4E3D4F0C46B04207D1002C53D0042CBD
:1032600051D0082C4FD00C2C4DD0B0F1804F60D0F5
:103270003649884207D1002C45D0042C43D0082C75
:1032800041D00C2C3FD03249884206D1BCB3042C2B
:1032900039D0082C37D00C2C35D02E49884206D195
:1032A0006CB3042C2FD0082C2DD00C2C2BD0B84272
:1032B00006D124B3042C26D0082C24D00C2C22D0E8
:1032C0002549884202D1D4B1042C1CD0234988421C
:1032D00000D1A4B12249884200D184B12149884259
:1032E00002D164B1042C0ED01F49884200D134B100
:1032F0001E49884200D114B140F2524100E002E080
:103300001BA002F075FA01222146286800F038FE61
:103310002868B04201D0B84203D1416C41F4004169
:1033200041642868016841F0010101600020BDE8A6
:10333000F081002CE7D0042CE5D0082CE3D00C2C35
:10334000E1D0D9E700000140000401400004004042
:1033500000080040000C00400040014000440140D3
:103360000048014000180040001C004000200040C0
:103370002E2E2F447269766572732F53544D33325B
:10338000463478785F48414C5F4472697665722FA5
:103390005372632F73746D3332663478785F68616B
:1033A0006C5F74696D2E630010B510490068096880
:1033B000884219D10E4801F0ADFE0D48203001F0D1
:1033C000A9FE0B48403001F0A5FE0948603001F02D
:1033D000A1FE084C08212046FDF7B2FE2046BDE8BC
:1033E00010401021FDF7ACBE10BD0000580B0020AE
:1033F00028000020001002407047704770B5026836
:1034000004461068D168536910F00F0F50D003F0D4
:10341000010501F4907635435DD0C20705D0CA0599
:1034200003D5E26B42F00102E263420705D5DA07F9
:1034300003D0E26B42F00202E263820705D5DA07AD
:1034400003D0E26B42F00402E263020705D5DA071B
:1034500003D0E26B42F00802E263E26B002A33D051
:10346000800604D5880602D5204601F03FF8206882
:103470004069E16BC0F38010090700D428B32046EF
:1034800001F044FA2068416949061AD5416921F0E2
:1034900040014161606BA0B11B490165606BFDF7A4
:1034A000FDF9002810D0606B016DBDE87040084741
:1034B000830610D58B060ED52046BDE8704001F07E
:1034C00015B82046FFF799FF70BD2046FFF795FF1E
:1034D0000020E06370BD030606D50B0604D5204628
:1034E000BDE8704001F058B84006F3D54806F1D564
:1034F000D168204621F04001D160202184F83910A4
:1035000000F0D2F970BD00007749000870B50400E2
:1035100022D0A0693A4E00283A493B4A3B4B2068EA
:103520001CD08D15B0420BD0884209D0904207D0F4
:10353000984205D0294636A002F05AF9A06900B396
:10354000A069A8421DD0B0F5007F1AD0B0F5407F29
:1035500017D040F2011111E0012070BDB04210D02F
:1035600088420ED090420CD03849884209D0384960
:10357000884206D0984204D040F2051124A002F0FF
:1035800037F9A06838B1B0F5805F04D040F2071178
:103590001FA002F02DF9E06938B1B0F5004F04D05A
:1035A0004FF484711AA002F023F994F83900002531
:1035B00020B984F83850204600F04CF8242084F8D4
:1035C00039002068C16821F40051C160204600F034
:1035D000EBFD2068016921F4904101612068416997
:1035E00021F02A0141612068C16841F40051C160A5
:1035F000E563202084F8390084F83A00002070BD8B
:103600000010014000440040004800400014014008
:103610002E2E2F447269766572732F53544D3332B8
:10362000463478785F48414C5F4472697665722F02
:103630005372632F73746D3332663478785F6861C8
:103640006C5F756172742E6300000000004C0040D6
:10365000005000402DE9F04387B00646142168462B
:10366000FCF7FAFDDFF800C131684048022201236F
:1036700003250727DFF8F8800024614557D13B492F
:103680001431D1F800C04CF0100CC1F800C009682A
:1036900001F010010591016841F00101016000682D
:1036A000694600F00100059068028DE8AD004046D3
:1036B000FDF7C0FB304D2F484FF000672860C5E98B
:1036C00001744FF48069C5E903496C614FF4003817
:1036D000AC61C5E9074828466C62FDF7C1F908B13D
:1036E000FDF7DBF87563AE63234D22486035783013
:1036F000E5E802074020A5E811021F4845F81449F3
:103700006030AC61C5E907486C62FDF7A9F908B102
:10371000FDF7C3F83563002211462520AE63FDF79F
:1037200039FF2520FDF706FF07B0BDE8F083134CF5
:10373000A142F9D10D4910310C6844F400340C60F9
:10374000096801F400310591016841F0010101604F
:103750000068694600F0010005900C208DE8AD007E
:103760004046FDF767FBDFE70010014030380240BC
:103770000000024040640240500C00200044004021
:10378000F8B5044690F83A0020283CD1C1B3BAB34A
:1037900094F83800012836D0012084F83800A1625E
:1037A000A2850025E563222084F83A00636B174860
:1037B000D863636B16481864636B1648D864606BF3
:1037C000134605650846666B216802463046091DAA
:1037D000FDF7B6FA206801684168009184F8385016
:1037E000C16841F48071C1602068416941F0010104
:1037F00041612068416941F0400141610020F8BD0C
:10380000FFE70120FBE70220F9E700003B49000841
:10381000F94800085F410008014801F077BA00004C
:10382000D40100207047000070B5044690F83900BC
:10383000202830D169B362B394F8380001282AD027
:10384000012084F838002162A284E2840025E56327
:10385000212084F83900236B1048D863236B10486B
:103860001864236B0F48D864206B134605652668DF
:10387000206B321DFDF764FA21686FF0400008608C
:1038800084F838502068416941F08001416100208E
:1038900070BD012070BD022070BD00008749000886
:1038A000034900085F410008014801F037BA0000F1
:1038B000D40100207047FEE70D4808B5016841F4C7
:1038C000800101600068002200F480000090114631
:1038D0003A20FDF75FFE3A20FDF72CFE002211464C
:1038E0004620FDF757FEBDE808404620FDF722BE02
:1038F000303802402DE9F04F87B014216846FCF7BC
:10390000ABFC5A480024016841F0100101600168D5
:1039100001F010010591016841F0040101600168A6
:1039200001F004010591016841F020010160016886
:1039300001F020010591016841F0800101600168FA
:1039400001F080010591016841F001010160016809
:1039500001F001010591016841F002010160016877
:1039600001F002010591016841F040010160016828
:1039700001F040010591016841F008010160006813
:103980003B4F00F008000590002218213846FDF753
:1039900003FCDFF8E0A0002278215046FDF7FCFB95
:1039A000DFF8D4B0002278215846FDF7F5FB49F244
:1039B000E7500325CDE90005694602943846FDF736
:1039C00039FA182000900126CDE90164694638468D
:1039D0000394FDF72FFA4FF63F770097CDE9015496
:1039E00069462648FDF726FA4FF68778CDF800801D
:1039F000CDE9015469465046FDF71CFA4FF07809AD
:103A0000CDF80090CDE90164694650460394FDF776
:103A100011FA49F63010CDE90005694602941848BC
:103A2000FDF708FA0097CDE9015469461548FDF7FE
:103A300001FACDF80080CDE9015469465846FDF7FA
:103A4000F9F94CF6FF70CDE90005694602940E487D
:103A5000FDF7F0F9CDF80090CDE9016469465846CC
:103A60000394FDF7E7F907B0BDE8F08F3038024066
:103A700000100240001402400018024000080240FA
:103A80000000024000040240000C02400D4810B546
:103A90000B4901600C49416000214FF48042816074
:103AA000C0E9031241618161C1610162FDF7B0FBB0
:103AB000002803D0BDE81040FCF7EFBE10BD0000A9
:103AC00000540040D8090020A086010010B590B035
:103AD00000240E941C2168460F94FCF7BDFB1C21AA
:103AE00007A8FCF7B9FB2C482A49016040F28F6116
:103AF000C0E9011440F2F311C0E903144461FFF777
:103B0000EFFA08B1FCF7C9FE0E940EA922480F94F3
:103B1000FEF734FA08B1FCF7C0FE6020CDE90004DE
:103B20000294039404940594002269461A4806946A
:103B3000FFF798F908B1FCF7B0FE04226946164871
:103B4000FFF790F908B1FCF7A8FE08226946124871
:103B5000FFF788F908B1FCF7A0FE0C2269460E4871
:103B6000FFF780F908B1FCF798FE079408940994D0
:103B70004FF400500A94CDE90B4007A906480D9474
:103B8000FEF754F908B1FCF788FE0348FFF73EF949
:103B900010B010BD000001402C0A002010B586B006
:103BA00000241648009401940294039404944FF066
:103BB00080410594016044F2A011C0E90114611E26
:103BC000C0E90314FEF76CFA08B1FCF766FE4FF487
:103BD0008050009069460948FEF70EFC08B1FCF7DA
:103BE0005CFE049404A905480594FEF7C7F9002873
:103BF00001D0FCF752FE06B010BD0000680A00209C
:103C000010B58CB024216846FCF726FB002415482B
:103C1000099413490A94C0E900144FF6FF71C0E9F2
:103C2000024104610120CDE90004CDE902040494BD
:103C3000CDE90540079469460A480894FEF746FE18
:103C400008B1FCF72AFE099409A906480A94FEF770
:103C500095F9002801D0FCF720FE0CB010BD000043
:103C600000040040A40A002010B58CB0242168464E
:103C7000FCF7F2FA00241548099413490A94C0E9A4
:103C800000144FF6FF71C0E9024104610120CDE943
:103C90000004CDE902040494CDE905400794694687
:103CA0000A480894FEF712FE08B1FCF7F6FD0994E5
:103CB00009A906480A94FEF761F9002801D0FCF72B
:103CC000ECFD0CB010BD000000080040E00A002030
:103CD00010B58CB024216846FCF7BEFA00241548C4
:103CE000099413490A94C0E900144FF6FF71C0E922
:103CF000024104610120CDE90004CDE902040494ED
:103D0000CDE90540079469460A480894FEF7DEFDB0
:103D100008B1FCF7C2FD099409A906480A94FEF708
:103D20002DF9002801D0FCF7B8FD0CB010BD000043
:103D3000000C00401C0B00201CB500240E48009411
:103D40000C490194016040F24731C0E9011442F28C
:103D50000F71C160FEF7A4F908B1FCF79EFD009455
:103D6000694605480194FEF709F9002801D0FCF7DF
:103D700094FD1CBD00100040580B002010B58CB005
:103D800024216846FCF768FA002415480994134971
:103D90000A94C0E900144FF6FF71C0E902410461C2
:103DA00044610120CDE90004CDE902040494CDE989
:103DB0000540079469460A480894FEF787FD08B154
:103DC000FCF76BFD099409A905480A94FEF7D6F89B
:103DD000002801D0FCF761FD0CB010BD00040140CB
:103DE000940B00200C4810B50A4901604FF4E131F2
:103DF0004160002181600C22C160C0E90412816130
:103E0000C161FFF783FB002803D0BDE81040FCF739
:103E100044BD10BD00100140D00B00200C4810B56F
:103E20000A4901604FF4E1314160002181600C22B8
:103E3000C160C0E904128161C161FFF767FB00281E
:103E400003D0BDE81040FCF728BD10BD0044004081
:103E5000100C0020FEE7704770477047FDF710BB5D
:103E60001048016841F4700101600F48016841F099
:103E7000010101600C4A00210832116002680B4BFD
:103E80001A400260031D0A4A1A60026822F4802266
:103E9000026005480C30016002495806803908600C
:103EA0007047000088ED00E000380240FFFFF6FE9A
:103EB000103000240148FEF7F6BE0000580B002029
:103EC000F0B50268234B244D244E254F254C4FF06E
:103ED000804C984209D0604507D0A84205D0B04236
:103EE00003D0B84201D0A04204D122F0700E4A683B
:103EF00042EA0E0298421BD0604519D0A84217D062
:103F0000B04215D0B84213D0A04211D0164DA842ED
:103F10000ED0164DA8420BD0154DA84208D0154D15
:103F2000A84205D0144DA84202D0144DA84203D196
:103F300022F44075CA682A4302608A68C2620A682D
:103F40008262984201D0A04201D109690163012136
:103F50004161F0BD00000140000400400008004045
:103F6000000C0040000401400040014000440140BA
:103F70000048014000180040001C004000200040A4
:103F800070B50446214816460D46844225D0B4F14A
:103F9000804F22D01E4884421FD01E4884421CD02D
:103FA0001D48844219D01D48844216D01C488442C2
:103FB00013D01C48844210D01B4884420DD01B48AB
:103FC00084420AD01A48844207D01A48844204D056
:103FD00041F2882118A001F00BFC65B1042D0AD034
:103FE000082D08D00C2D06D0182D04D041F28921BF
:103FF00011A001F0FDFB0120216AA840814321624C
:10400000206AAE403043206270BD000000000140D5
:104010000004004000080040000C00400004014083
:1040200000400140004401400048014000180040A9
:10403000001C0040002000402E2E2F44726976653F
:1040400072732F53544D3332463478785F48414C65
:104050005F4472697665722F5372632F73746D3388
:1040600032663478785F68616C5F74696D2E6300C6
:104070002DE9F0410446006A0D4620F01000206250
:10408000206A6768A1692A6821F4E64141EA0228AA
:10409000A96820F0200040EA01161348844202D0AB
:1040A0001248844217D1E86830B1082804D041F2A0
:1040B00005210FA001F09CFBE96826F0800040EA92
:1040C000011020F04006696927F4406040EA810051
:1040D000A96940EA81076760C4F818806868A0632E
:1040E0002662BDE8F08100000000014000040140AC
:1040F0002E2E2F447269766572732F53544D3332CE
:10410000463478785F48414C5F4472697665722F17
:104110005372632F73746D3332663478785F6861DD
:104120006C5F74696D2E63000148FFF767B900008A
:10413000D00B0020FEE730B50468256825F4802503
:104140002560046863608368402B036803D099602E
:104150000068C26030BD9A600068C16030BD70B553
:10416000846B2068406994F83910C0F3C0100025B2
:10417000212904D118B1E584204600F0D5FB206840
:10418000406994F83A10C0F38010222904D118B184
:10419000E585204600F0BAFBE06B40F01000E063DC
:1041A0002046FFF72AF970BD2DE9F041044640682A
:1041B000BC49884204D340F68511BBA001F018FB2E
:1041C000E06838B1B0F5005F04D040F68611B6A0C3
:1041D00001F00EFB206950B1B0F5806F07D0B0F54B
:1041E000C06F04D040F68711AFA001F001FB6069F9
:1041F0004FF6F371084200D120B940F68811AAA009
:1042000001F0F6FA2268106920F44051E068084392
:1042100010612268D06849F20C6188432369A16863
:10422000E569194363692B4319430143D16022684F
:10423000506920F44071A06908435061E269642527
:10424000B2F5004FA748A84922684FF032083FD086
:104250008A4201D082427CD1FDF760FB00EBC001B5
:1042600001EB001061688900B0FBF1F6FDF756FB29
:1042700000EBC00101EB001061688900B0FBF1F0B8
:10428000B0FBF5F06FF01801484306EB800108EB36
:104290000110B0FBF5F000F0F006FDF73FFB00EB7E
:1042A000C00101EB001061688900B0FBF1F0B0FBC8
:1042B000F5F006EB0016FDF731FB00EBC00101EB5A
:1042C000001061688900B0FBF1F7FDF727FBD2E031
:1042D0008A4201D082423DD1FDF720FB00EBC001B4
:1042E00001EB001061684900B0FBF1F0B0FBF5F0A4
:1042F0000601FDF713FB00EBC00101EB0010616844
:104300004900B0FBF1F7FDF709FB00EBC00101EB41
:10431000001061684900B0FBF1F0B0FBF5F06FF000
:104320001801484307EB800108EBC100B0FBF5F032
:1043300000F0F80006EB4006FDF7F0FA00EBC001D4
:1043400001EB001061684900B0FBF1F7FDF7E6FAF8
:104350003CE055E0FDF7D2FA00EBC00101EB0010A4
:1043600061684900B0FBF1F0B0FBF5F00601FDF724
:10437000C5FA00EBC00101EB001061684900B0FB19
:10438000F1F7FDF7BBFA00EBC00101EB001061682B
:104390004900B0FBF1F0B0FBF5F06FF018014843B5
:1043A00007EB800108EBC100B0FBF5F000F0F8006E
:1043B00006EB4006FDF7A2FA00EBC00101EB00108E
:1043C00061684900B0FBF1F7FDF798FA00EBC00116
:1043D00001EB001061684900B0FBF1F0B0FBF5F0B3
:1043E0006FF01801484307EB800108EBC100B0FBF8
:1043F000F5F000F00700216830448860BDE8F081E6
:10440000FDF77CFA00EBC00101EB00106168890048
:10441000B0FBF1F6FDF772FA00EBC00101EB001002
:1044200061688900B0FBF1F0B0FBF5F06FF01801A6
:10443000484306EB800108EB0110B0FBF5F000F0FB
:10444000F006FDF75BFA00EBC00101EB00106168BC
:104450008900B0FBF1F0B0FBF5F006EB0016FDF7BC
:104460004DFA00EBC00101EB001061688900B0FB60
:10447000F1F7FDF743FA00EBC00101EB00106168B2
:104480008900B0FBF1F0B0FBF5F06FF01801484384
:1044900007EB800108EB0110B0FBF5F000F00F0016
:1044A000A9E70000A137A0002E2E2F44726976657F
:1044B00072732F53544D3332463478785F48414CF1
:1044C0005F4472697665722F5372632F73746D3314
:1044D00032663478785F68616C5F756172742E63E0
:1044E00000000000001401400010014010B590F8D9
:1044F0003A10222901D0022010BD8168B1F5805FF9
:1045000011D00169002901681FD0496801F07F03BB
:10451000816A4A1C82620B70C18D491E0904090C14
:10452000C18518D026E00269816A002A02685268B3
:1045300005D0D2B20A80816A491C8162ECE7C2F3DD
:1045400008020A80816A891CF7E74A68816A4B1C65
:1045500083620A70E0E70168CA6822F49072CA6058
:1045600001684A6922F001024A61202180F83A106C
:10457000FFF752F9002010BD0907090E002806DADE
:1045800000F00F0000F1E02080F8141D704700F1EA
:10459000E02080F80014704790F83910212901D0EC
:1045A000022070478168B1F5805F016A0BD04A1C18
:1045B0000262026809785160C18C491E0904090C25
:1045C000C1840ED017E009880268C1F30801516068
:1045D00001690029016A02D0491C0162ECE7891CCB
:1045E000FBE70168CA6822F08002CA600068C168FF
:1045F00041F04001C16000207047000010B590ED0F
:10460000081AD0ED030A90ED020A044800F080FA7F
:104610000248483080EC080B10BD00006801002003
:1046200010B5846842EA032224F47F440A432243FB
:10463000826010BD30B5026A22F001020262026A95
:10464000436884690D6824F07304254322F0020452
:104650008A6822430B4CA04202D00B4CA0420BD1E3
:1046600022F00804CA6823F4407322434C6922F004
:1046700004021C438B69234343608561496841639D
:10468000026230BD00000140000401402DE9F0410C
:104690000446006A0D4620F480702062206A676834
:1046A000E16920F4007021F07302296841EA0208F0
:1046B000A96840EA01261D48844202D01C48844271
:1046C0002BD1E86830B1082804D041F2173119A085
:1046D00001F08EF8A869B0F5007F05D020B141F255
:1046E000183114A001F084F86869B0F5807F05D016
:1046F00020B141F219310FA001F07AF8E96826F4EF
:10470000006040EA012020F48066696927F4405087
:1047100040EA0110A96940EA01176760C4F81C80EB
:104720006868E0632662BDE8F08100000000014097
:10473000000401402E2E2F447269766572732F5348
:10474000544D3332463478785F48414C5F44726947
:104750007665722F5372632F73746D3332663478BB
:10476000785F68616C5F74696D2E63002DE9F041BC
:104770000446006A0D4620F480502062206A666874
:10478000E1692A6821F4E64141EA0228A96820F497
:10479000005040EA01370E48844202D00D4884425E
:1047A0000ED16869B0F5807F05D020B141F25D314E
:1047B00009A001F01DF8696926F4804040EA8116DD
:1047C0006660C4F81C80686820642762BDE8F081D8
:1047D00000000140000401402E2E2F4472697665CE
:1047E00072732F53544D3332463478785F48414CBE
:1047F0005F4472697665722F5372632F73746D33E1
:1048000032663478785F68616C5F74696D2E63001E
:1048100010B5014600208B698A6A4FF0C07453B10D
:10482000B3F5005F15D072B1012A0CD0022A0AD06C
:10483000032A09D104E01AB1012A06D0022A03D1C1
:10484000C96AC90100D5012010BDC96AA142FAD0C8
:1048500010BD002AF7D0012AF2D0022AF3D0032A91
:10486000F3D010BD30B593B030216846FBF7F4FCAF
:1048700014210CA8FBF7F0FC19480025016841F051
:1048800080510160006800F0805011901548016867
:1048900041F4804101600068022400F480401190DE
:1048A0000120039010200490009406940820CDE984
:1048B0000750A820CDE9090404200B906846FDF7B5
:1048C0006FF80CA90F2081E831004FF4A0500F9031
:1048D000E002109005210CA8FCF7ECFE13B030BDEF
:1048E0004038024000700040826822F070020A43A3
:1048F00042F007018160704710B5806BFEF792FFB0
:1049000010BD10B5806BFEF7D5FF10BD0168CA68F9
:1049100022F49072CA6001684A6922F001024A6179
:10492000202180F83A1070470168CA6822F0C0025E
:10493000CA60202180F83910704710B50146806B9D
:1049400009680968C90513D40021C1850168CA68CE
:1049500022F48072CA6001684A6922F001024A6149
:1049600001684A6922F040024A61202180F83A1029
:10497000FEF752FF10BD10B5806B0021C185C184C8
:10498000FEF73BFD10BD10B50146806B0968096854
:10499000C9050CD40021C18401684A6922F0800253
:1049A0004A610068C16841F04001C16010BDFEF776
:1049B0007BFF10BD01681823CAB2103AB2FBF3F2B4
:1049C000054B6FF30901032A9B5CC36500D9091DE0
:1049D0008165084670470000745F0008104810B5F4
:1049E00090ED003B203890ED002B203890ED001B1F
:1049F000203890ED000B00F5A07000F0E7F80948B2
:104A0000024680ED020AC0ED030A80ED081A00F6A6
:104A10003C00D0E9021003681B68BDE8104018474D
:104A2000880000208801002010B5036A046A24F081
:104A300001040462846924F0F00444EA021423F0BF
:104A40000A020A438461026210BD10B5036A23F0B2
:104A5000100303628369046A23F4704343EA023259
:104A600024F0A00343EA01118261016210BD00003D
:104A700070B5254800F5C47590ED001B95ED000B51
:104A8000803000F0B1FA214C218808442080A5F53F
:104A9000B47095ED020B90ED001B903000F0A4FA7D
:104AA000618808446080A5F5A47095ED040B90ED35
:104AB000001BA03000F098FAA1880844A080A5F55A
:104AC000947095ED060B90ED001BB03000F08CFA61
:104AD000E1880844E080B4F900100B4800F08AFB3C
:104AE000B4F90210A5F5B47000F084FBB4F9041019
:104AF000A5F5A47000F07EFBB4F90610A5F594703E
:104B0000BDE8704000F076BB2800002000000020C7
:104B100010B5DFED2D1A2DED0A8B60EE219A20EEF7
:104B2000A19A61EE210AB6EE000AC0ED009A80ED6E
:104B3000019AC0ED020A90ED061AD0ED071A39EE7F
:104B4000C9CA21EE001A01EE801A21EE208A80EDFA
:104B5000048A7CEE480AD0ED038A80EEA80A10EEA3
:104B6000100AFBF753FD39EE89BA41EC1A0B7BEEC4
:104B7000080A80EEA80A10EE100AFBF747FD7BEE4C
:104B8000480A41EC190B80EEA80A10EE100AFBF758
:104B90003DFD7CEE080A41EC1B0B80EEA80A10EEEE
:104BA000100AFBF733FDB0EE4A0AF0EE6A0AB0EEE7
:104BB000491AF0EE691AB0EE4B2AF0EE6B2ABDEC02
:104BC0000A8B41EC130B10BD0000704270B5054616
:104BD0002DED0C8BB0EE41CAF0EE61CAB0EE40DABA
:104BE000F0EE60DAB0EE438AF0EE638AB0EE429AFD
:104BF000F0EE629A53EC1C2B51EC1D0BFBF74EFBB5
:104C000053EC192BFBF74AFB53EC182BFBF746FB35
:104C1000FBF740FD00EE100A95ED03AAF5EE00AAA1
:104C20009FED27BA20EE0A0A53EC1D2B51EC1C0B0A
:104C300020EE2A0AC0EE0BBAFBF7D1FB0E4646EC7B
:104C4000110B044653EC192B51EC110BFBF726FB0F
:104C500053EC182BFBF7C3FBFBF71CFD00EE100A0F
:104C600046EC114B53EC192B20EE0A0A51EC110BB8
:104C700020EE2A0A80EE0BCAFBF7B1FB53EC182B8F
:104C8000FBF70CFBFBF706FD00EE100AD5ED060A5C
:104C900095ED071A20EE0A0A20EE2A0AC0EE0B1A3A
:104CA000B6EE000A60EE800A41EE000AB0EE6B0A32
:104CB00081EEA01AF0EE4C0ABDEC0C8B70BD00002A
:104CC0000000704210B504462DED028BF0EE418AD3
:104CD00080ED050AB0EE608A10EE100AFBF796FC34
:104CE0009FED080B53EC102BFBF77FFBFBF7D2FC7F
:104CF000E06084ED068AC4ED078A2046BDEC028B95
:104D000010BD00004AD8124DFB210940436800F154
:104D1000080180221846FEF733BD000070B54368D5
:104D2000044693F83900202820D1114D2878002816
:104D30001CD101202870D4E9A310814214D08842EC
:104D400001D2091A01E0C0F500718EB204F18C01A4
:104D5000014432461846FEF767FDB4F8900230442D
:104D6000C0F30800C4F890020020287070BD000055
:104D70002000002070B506460C46001D00F01AF811
:104D80000546611906F1140000F014F8284470BDBE
:104D90000048704750600008004870477160000884
:104DA000034A0249C0E90012426170479C5F000853
:104DB000B45F000870B5CB78021D5B0943600C79C5
:104DC00043EAC40343604C7943EAC42343608C79CB
:104DD00004F00F0443EAC44545608B79CC791B0984
:104DE00004F07F0453EA04144FF0804303D003EB34
:104DF000C45425431560CA7912F0800F05D090ED98
:104E0000010AB1EE400A80ED010ACC7A00F10802F5
:104E1000640984600D7B44EAC50484604D7B44EAE8
:104E2000C52484608D7B05F00F0544EAC544846089
:104E30008D7BCE7B2D0906F07F0655EA061503D043
:104E400003EBC5552C431460CA7B12F0800F05D0CC
:104E500090ED020AB1EE400A80ED020ACC7C00F12E
:104E60000C026409C4600D7D44EAC504C4604D7D34
:104E700044EAC524C4608D7D05F00F0544EAC544AD
:104E8000C4608D7DCE7D2D0906F07F0655EA06159E
:104E900003D003EBC5531C431460C97D11F0800F90
:104EA0004FF0180105D090ED030AB1EE400A80EDF5
:104EB000030A084670BD000000487047856000087E
:104EC00000487047A66000082DE9F04105460F78BC
:104ED00000790E46B84204D2B900E86800F014FD2B
:104EE000E860042400202F71804611E03119325D02
:104EF0004B7842EA03228B78C97842EA034242EABD
:104F00000161A960EA6842F82010401CC0B2241D6B
:104F100029798142EAD8375D287C641CB84204D2E2
:104F2000B900A86900F0F0FCA86100202F74E41C0F
:104F300012E03119325D4B7842EA03228B78C9784E
:104F400042EA034242EA01616961D5E9052141F87B
:104F50002020401CC0B2241D297C8142E9D8375D45
:104F6000287F641CB84204D2B900686A00F0CCFC07
:104F70006862E01C2F77002218E03118001D0C68D1
:104F800003460146204404E0745C7718491C07F886
:104F9000014C8842F8D88419F11804F8018C491E94
:104FA00029626B6A43F82210521CD2B2297F9142C7
:104FB000E3D8BDE8F081000000487047BC600008FD
:104FC00000487047585F000800487047DD600008DF
:104FD00000487047FE6000080048704711610008F3
:104FE000004870473261000810B504462DED068B6D
:104FF000B0EE409AF0EE609A53EC112B9FED39AB76
:1050000051EC190BFBF7EBF941EC180B94ED060B87
:1050100053EC182B51EC100BFBF740F9C4E90601D7
:1050200094ED0A0B51EC180B53EC102BFBF7D7F94E
:10503000C4E9080153EC1A2B51EC190BFBF7FAFAEF
:1050400008D153EC1A2B51EC180BFBF7F3FA01D1F2
:1050500084ED06AB2069FBF7D9FA94ED081B53ECFD
:10506000112BFBF7C2F941EC190BE068FBF7CEFA04
:1050700094ED061B53EC112BFBF7B7F941EC1A0B1F
:10508000A068FBF7C3FA53EC182BFBF7AEF953EC0F
:105090001A2BFBF703F953EC192BFBF7FFF841EC44
:1050A000190B84ED0A8B2068FBF7B0FA53EC192B2F
:1050B000FBF7D8FA01D2206808E06068FBF7A6FA8F
:1050C00053EC192BFBF7B6FA04D26068FBF79EFA93
:1050D00041EC190B51EC190BFBF779FABDEC068B7F
:1050E00000B210BD000000000000000080EC050AC6
:1050F0007047000010B5064B0A68B2FBF3F403FBDF
:105100001424B2FBF3F203681A4402600C6010BD71
:1051100000CA9A3B2DE9F04105462DED048BFCF7C2
:1051200071F82E7A074636B1012E06D0022E06D02F
:10513000032E06D008E0274804E0274802E027486D
:1051400000E027480068446AE868A04201DA211AB2
:1051500000E0011B47F23052914210DDA04203DA19
:10516000201AA0F5803002E0C0F580302044FBF723
:105170001DFA41EC180B26B1022E02D007E0201ACE
:10518000F5E751EC180B81F0004141EC180B286950
:10519000381AFBF70BFA9FED131B53EC112BFBF79F
:1051A00096F941EC190B9FED110B85ED069B53EC25
:1051B000102B51EC180BFBF78AF953EC192BFBF76A
:1051C00086F9C5E90001C5E90347BDEC048BBDE8DC
:1051D000F0810000A40A0020E00A00201C0B00203F
:1051E000940B002000000000004CED400000000087
:1051F000006088402DE9F0410C46007A3D4F3E4D5D
:105200006642B8B1012831D03C4F02284AD0032869
:105210000ED1002C4FF0000260DB20213846FBF756
:10522000BBFF012240213846FBF7B6FF2868046423
:10523000BDE8F081002C4FF000020BDB1021384656
:10524000FBF7AAFF012208213846FBF7A5FF2868D3
:105250004463EDE708213846FBF79EFF0122102149
:105260003846FBF799FF28684663E1E7002C4FF0CA
:1052700000020BDB20213846FBF78EFF0122402184
:105280003846FBF789FF28688463D1E74021384618
:10529000FBF782FF012220213846FBF77DFF2868BB
:1052A0008663C5E7002C4FF000020BDB1021384667
:1052B000FBF772FF012208213846FBF76DFF2868D3
:1052C000C463B5E708213846FBF766FF01221021C9
:1052D0003846FBF761FF2868C663A9E740213846D6
:1052E000FBF75AFF012220213846FBF755FF2868BB
:1052F00006649DE7001402402C0A002000180240BA
:1053000001720021C1609FED030B016180ED060B6E
:105310007047000000000000000000000A784260B2
:105320004B7842EA032242608B7842EA03424260B1
:10533000CB7842EA036242600B790A1D83604979A7
:1053400043EA01218160937841EA03418160D27888
:1053500041EA026181600820704700000048704700
:105360008461000800487047A561000802490022D6
:10537000C0E90012826070474060000870B50646C0
:105380000C46001D00F008F80546611906F11400EE
:1053900000F002F8284470BD30B54368C3F3C75429
:1053A0000CB104F5607400220A704A708A705D01C5
:1053B000CD70DD080D71DD0A4D71C3F3C34343EABF
:1053C00004158D712409CC7190ED010AB5EEC00A67
:1053D000F1EE10FA02D244F08004CC718368C3F37A
:1053E000C7540CB104F560740A724A728A725D0186
:1053F000CD72DD080D73DD0A4D73C3F3C34343EA79
:1054000004158D732409CC7390ED020AB5EEC00A21
:10541000F1EE10FA02D244F08004CC73C368C3F3F7
:10542000C7540CB104F560740A744A748A745A0142
:10543000CA74DA080A75DA0A4A75C3F3C34343EA41
:1054400004128A752309CB7590ED030A1822B5EE74
:10545000C00AF1EE10FA02D243F08000C87510467F
:1054600030BD2DE9F04106460079087000204870F3
:1054700088700D46C870042401460DE0F2682B19AF
:1054800052F821202A55170A5F70170C120E491C7A
:105490009F70DA70C9B2241D32798A42EED8317C0D
:1054A0002955641C00222855641C2855641C285565
:1054B000641C0DE0B1692B1951F8221029550F0A0F
:1054C0005F700F0C090E521C9F70D970D2B2241D50
:1054D000317C9142EED8317F2955641C0027285534
:1054E000641C2855641C2855641C12E0706A50F82E
:1054F0002700FAF7BCFE291980460860706A241D4F
:10550000424650F827102819FAF78DFE7F1C4444B4
:10551000FFB2307FB842E9D82046BDE8F08170B5CF
:105520000646007908700C46B068FAF7A0FE0546FA
:10553000C4F80100601D2A46B168FAF774FE681DC0
:1055400070BD2DE9F041054600790870A8880C4629
:10555000000A4870A868FAF78AFE0646C4F80200F6
:10556000A01D3246A968FAF75EFEB61DE868FAF794
:105570007EFE0746A019361D0760A0193A46E96865
:10558000FAF751FE3E442869FAF771FE0746A01962
:10559000361D0760A0193A462969FAF744FEF0194A
:1055A0006969221821540B0A53700B0C090E937071
:1055B000D170001DBDE8F08102790A708288120A5C
:1055C0004A704268120C8A704268120ECA70027ADF
:1055D0000A710289130A0A1D4B718168090C9170C6
:1055E0008068000ED07008207047000030B528B1E8
:1055F000144C031F002021680A4605E0084630BD10
:105600009A4203D810465268002AF9D1002800D0E7
:1056100041680BD00468A3EB0005A54204D11B68C8
:105620001C440346046002E0436000E023603AB19A
:105630001C68D51AA54203D115682C441C60526819
:105640005A6030BD180000202DE9F04782460F4C0B
:1056500010480D4E0E4F001B4FF0000820F00705BC
:105660004FF0010900221146504600F0C3F800280F
:1056700002D1306810B10020BDE8F0873C60C4E979
:105680000058C6F80090EDE71C000020140D002023
:1056900018000020100F002002E008C8121F08C1E7
:1056A000002AFAD170477047002001E001C1121FA3
:1056B000002AFBD17047000070B500212DED048B4E
:1056C0003C48FFF71DFE3B4801212030FFF718FE44
:1056D000384802214030FFF713FE3648032160307E
:1056E000FFF70EFE9FED348ADFED348A9FED349A8A
:1056F0003048B0EE482AF0EE481AB0EE481AF0EE04
:10570000680AB0EE490A8030FFF7F0FC2948B0EE95
:10571000482AF0EE481AB0EE481AF0EE680AB0EEE9
:10572000490AB030FFF7E2FC2248B0EE482AF0EE1A
:10573000481AB0EE481AF0EE680AB0EE490AE030B6
:10574000FFF7D4FCB0EE482AF0EE481AB0EE481A43
:10575000F0EE680AB0EE490A1A48FFF7C7FC19488C
:105760009FED191ADFED190A9FED190A3030FFF786
:10577000A9FA14485030FFF713FB1248983000F094
:10578000A5FB1448174914A6154D012440F80C1B1D
:10579000FFF706FB40F8046CC0E909540D4812A35A
:1057A00038300021A0F63C020161C0E90032BDECB6
:1057B000048B70BD28000020CDCC4C3E0000FA4385
:1057C0000000FAC3380100201F856B3E295C8F3E24
:1057D000BF0E9C3D8C090020636D645F76656C0094
:1057E000FD450008146000087261775F76656C0003
:1057F000704700002DE9F0410B3020F00706104DF6
:1058000019E02068B04215D3B0420AD9871B201D89
:10581000D4F80480FAF707FDA019C0E900782860E1
:1058200004E060682860201DFAF7FDFC201D26605A
:10583000BDE8F081251D2C68002CE2D10020F7E79F
:105840001800002010B51420FBF7E2FAFFF710F95A
:10585000FFF7C4F8BDE81040014800F0F1B90000BE
:10586000D0010020FBF714FEFEF7FCFFFEF742F824
:10587000FEF722F8FEF792F9FEF7B4FAFEF7C0F948
:10588000FEF7F2F9FEF724FAFEF778FAFEF7FEF8D3
:10589000FEF7C4FAFEF71AF9FEF74EFA1448FCF7C1
:1058A00037FD18211348FDF799F918211248FDF723
:1058B00095F918211148FDF791F918211048FDF7C5
:1058C0008DF900210F48FDF7BFFC04210D48FDF7BD
:1058D000BBFC08210B48FDF7B7FC0C210948FDF77C
:1058E000B3FC00F047F800BFFFF7ACFFFCE7000097
:1058F000580B0020A40A0020E00A00201C0B002006
:10590000940B00202C0A00202DE9F04704008A4661
:1059100016D054F8047CD4F800903E1F564500D9A8
:1059200056462046FFF762FE054688463246214627
:105930005046FFF75FFF40B1C0F80090BDE8F08728
:10594000BDE8F0470846FFF77FBE44E9017955B14D
:1059500029686A18211F8A4202D9611B091F296020
:10596000C5F80480EAE7024AC2F80080E6E70000D2
:105970001800002070B5234C251D2846FFF7C6F9F6
:105980002868FCF74FFC0020C4F86C07C4F87007C7
:10599000C4F87807214601F2F472C4F8740700BF16
:1059A00001EB8003D3F8A4367BB1401C1928F7DB48
:1059B0001449002001F2BC7201EB8003D3F80837D0
:1059C0005BB1401C1928F7DB0DE001EB80037D3053
:1059D000C3F8A426C2E90201EAE701EB80016430C2
:1059E000C1F808275060074C94F880070028054844
:1059F00005D0BDE8704004A2012100F09BB800F082
:105A00001FF9F1E7D00100205759555F524F424F1F
:105A10005420434F4E4E4543544544205355434331
:105A20004553532021212100004870477160000830
:105A3000406B704770B504460C300546FFF79AF985
:105A40002846216BBDE870400847000000487047B9
:105A500050600008F0B587B004462C4800254FF48C
:105A60000076009004EB8507D7F8A406E8B100891A
:105A7000ADF80400D7F8A40600680290D7F8A40691
:105A800007F2A4674068016889688847039038680E
:105A900040680168C9688847CDE9040638686A46E5
:105AA000016920680368204698476D1C192DD9DBD1
:105AB0005FF0000504EB8507D7F80807F0B1808890
:105AC000ADF80400D7F8080780680290D7F80807F7
:105AD00007F5E167016889688847039038680168BD
